{
	"_format": "hh-sol-artifact-1",
	"contractName": "MemoryGameWithCoins",
	"sourceName": "contracts/MemoryGameWithCoins.sol",
	"abi": [
		{
			"anonymous": false,
			"inputs": [
				{
					"indexed": true,
					"internalType": "address",
					"name": "player",
					"type": "address"
				},
				{
					"indexed": false,
					"internalType": "enum MemoryGameWithCoins.Level",
					"name": "level",
					"type": "uint8"
				},
				{
					"indexed": false,
					"internalType": "uint256",
					"name": "timeTaken",
					"type": "uint256"
				},
				{
					"indexed": false,
					"internalType": "uint256",
					"name": "wrongMoves",
					"type": "uint256"
				},
				{
					"indexed": false,
					"internalType": "uint256",
					"name": "pairsMatched",
					"type": "uint256"
				},
				{
					"indexed": false,
					"internalType": "int256",
					"name": "coinsChange",
					"type": "int256"
				}
			],
			"name": "GameCompleted",
			"type": "event"
		},
		{
			"inputs": [],
			"name": "initPlayer",
			"outputs": [],
			"stateMutability": "nonpayable",
			"type": "function"
		},
		{
			"inputs": [
				{
					"internalType": "address",
					"name": "",
					"type": "address"
				}
			],
			"name": "playerCoins",
			"outputs": [
				{
					"internalType": "uint256",
					"name": "",
					"type": "uint256"
				}
			],
			"stateMutability": "view",
			"type": "function"
		},
		{
			"inputs": [
				{
					"internalType": "enum MemoryGameWithCoins.Level",
					"name": "level",
					"type": "uint8"
				},
				{
					"internalType": "uint256",
					"name": "timeTaken",
					"type": "uint256"
				},
				{
					"internalType": "uint256",
					"name": "wrongMoves",
					"type": "uint256"
				},
				{
					"internalType": "uint256",
					"name": "pairsMatched",
					"type": "uint256"
				}
			],
			"name": "recordResult",
			"outputs": [],
			"stateMutability": "nonpayable",
			"type": "function"
		},
		{
			"inputs": [
				{
					"internalType": "address",
					"name": "",
					"type": "address"
				},
				{
					"internalType": "enum MemoryGameWithCoins.Level",
					"name": "",
					"type": "uint8"
				}
			],
			"name": "stats",
			"outputs": [
				{
					"internalType": "uint256",
					"name": "bestTime",
					"type": "uint256"
				},
				{
					"internalType": "uint256",
					"name": "leastMoves",
					"type": "uint256"
				},
				{
					"internalType": "uint256",
					"name": "lastPlayed",
					"type": "uint256"
				}
			],
			"stateMutability": "view",
			"type": "function"
		}
	],
	"bytecode": "0x6080604052348015600f57600080fd5b50610a348061001f6000396000f3fe608060405234801561001057600080fd5b506004361061004c5760003560e01c8063128fe6a51461005157806332f79bb91461005b5780633a0564e21461008b578063c9038199146100bd575b600080fd5b6100596100d9565b005b61007560048036038101906100709190610581565b6101a2565b60405161008291906105c7565b60405180910390f35b6100a560048036038101906100a09190610607565b6101ba565b6040516100b493929190610647565b60405180910390f35b6100d760048036038101906100d291906106aa565b6101f1565b005b6000600160003373ffffffffffffffffffffffffffffffffffffffff1673ffffffffffffffffffffffffffffffffffffffff168152602001908152602001600020541461015b576040517f08c379a00000000000000000000000000000000000000000000000000000000081526004016101529061076e565b60405180910390fd5b6064600160003373ffffffffffffffffffffffffffffffffffffffff1673ffffffffffffffffffffffffffffffffffffffff16815260200190815260200160002081905550565b60016020528060005260406000206000915090505481565b6000602052816000526040600020602052806000526040600020600091509150508060000154908060010154908060020154905083565b60028460028111156102065761020561078e565b5b61021091906107ec565b8114610251576040517f08c379a00000000000000000000000000000000000000000000000000000000081526004016102489061086c565b60405180910390fd5b600060028560028111156102685761026761078e565b5b61027291906107ec565b820361028157600a905061029a565b60028361028e919061088c565b610297906108d8565b90505b60008113156102fe5780600160003373ffffffffffffffffffffffffffffffffffffffff1673ffffffffffffffffffffffffffffffffffffffff16815260200190815260200160002060008282546102f291906107ec565b925050819055506103f6565b60008161030a906108d8565b9050600160003373ffffffffffffffffffffffffffffffffffffffff1673ffffffffffffffffffffffffffffffffffffffff1681526020019081526020016000205481111561039d576000600160003373ffffffffffffffffffffffffffffffffffffffff1673ffffffffffffffffffffffffffffffffffffffff168152602001908152602001600020819055506103f4565b80600160003373ffffffffffffffffffffffffffffffffffffffff1673ffffffffffffffffffffffffffffffffffffffff16815260200190815260200160002060008282546103ec9190610920565b925050819055505b505b60008060003373ffffffffffffffffffffffffffffffffffffffff1673ffffffffffffffffffffffffffffffffffffffff168152602001908152602001600020600087600281111561044b5761044a61078e565b5b600281111561045d5761045c61078e565b5b815260200190815260200160002090508060000154851080610483575060008160000154145b15610492578481600001819055505b80600101548410806104a8575060008160010154145b156104b7578381600101819055505b4281600201819055503373ffffffffffffffffffffffffffffffffffffffff167f83f52d380c7b311e863f6c209056534921bd61fbdbe9c46ce4049e23531de75d878787878760405161050e9594939291906109ab565b60405180910390a2505050505050565b600080fd5b600073ffffffffffffffffffffffffffffffffffffffff82169050919050565b600061054e82610523565b9050919050565b61055e81610543565b811461056957600080fd5b50565b60008135905061057b81610555565b92915050565b6000602082840312156105975761059661051e565b5b60006105a58482850161056c565b91505092915050565b6000819050919050565b6105c1816105ae565b82525050565b60006020820190506105dc60008301846105b8565b92915050565b600381106105ef57600080fd5b50565b600081359050610601816105e2565b92915050565b6000806040838503121561061e5761061d61051e565b5b600061062c8582860161056c565b925050602061063d858286016105f2565b9150509250929050565b600060608201905061065c60008301866105b8565b61066960208301856105b8565b61067660408301846105b8565b949350505050565b610687816105ae565b811461069257600080fd5b50565b6000813590506106a48161067e565b92915050565b600080600080608085870312156106c4576106c361051e565b5b60006106d2878288016105f2565b94505060206106e387828801610695565b93505060406106f487828801610695565b925050606061070587828801610695565b91505092959194509250565b600082825260208201905092915050565b7f416c726561647920696e697469616c697a656400000000000000000000000000600082015250565b6000610758601383610711565b915061076382610722565b602082019050919050565b600060208201905081810360008301526107878161074b565b9050919050565b7f4e487b7100000000000000000000000000000000000000000000000000000000600052602160045260246000fd5b7f4e487b7100000000000000000000000000000000000000000000000000000000600052601160045260246000fd5b60006107f7826105ae565b9150610802836105ae565b925082820190508082111561081a576108196107bd565b5b92915050565b7f496e76616c6964207061697220636f756e740000000000000000000000000000600082015250565b6000610856601283610711565b915061086182610820565b602082019050919050565b6000602082019050818103600083015261088581610849565b9050919050565b6000610897826105ae565b91506108a2836105ae565b92508282026108b0816105ae565b915082820484148315176108c7576108c66107bd565b5b5092915050565b6000819050919050565b60006108e3826108ce565b91507f80000000000000000000000000000000000000000000000000000000000000008203610915576109146107bd565b5b816000039050919050565b600061092b826105ae565b9150610936836105ae565b925082820390508181111561094e5761094d6107bd565b5b92915050565b600381106109655761096461078e565b5b50565b600081905061097682610954565b919050565b600061098682610968565b9050919050565b6109968161097b565b82525050565b6109a5816108ce565b82525050565b600060a0820190506109c0600083018861098d565b6109cd60208301876105b8565b6109da60408301866105b8565b6109e760608301856105b8565b6109f4608083018461099c565b969550505050505056fea26469706673582212204768a3a8feed69886fce98c34b24fc41e11374eb3b406f19433b86b5312098f364736f6c634300081c0033",
	"linkReferences": {},
	"deployedLinkReferences": {}
}